{
  "_format": "hh-sol-artifact-1",
  "contractName": "User",
  "sourceName": "contracts/User.sol",
  "abi": [
    {
      "anonymous": false,
      "inputs": [
        {
          "indexed": true,
          "internalType": "address",
          "name": "user",
          "type": "address"
        },
        {
          "indexed": true,
          "internalType": "address",
          "name": "eventContract",
          "type": "address"
        },
        {
          "indexed": false,
          "internalType": "uint256",
          "name": "ticketID",
          "type": "uint256"
        }
      ],
      "name": "TicketPurchased",
      "type": "event"
    },
    {
      "inputs": [
        {
          "internalType": "address",
          "name": "user",
          "type": "address"
        },
        {
          "internalType": "address",
          "name": "eventContract",
          "type": "address"
        },
        {
          "internalType": "uint256",
          "name": "ticketID",
          "type": "uint256"
        }
      ],
      "name": "addTicket",
      "outputs": [],
      "stateMutability": "nonpayable",
      "type": "function"
    },
    {
      "inputs": [
        {
          "internalType": "address",
          "name": "user",
          "type": "address"
        }
      ],
      "name": "getTickets",
      "outputs": [
        {
          "components": [
            {
              "internalType": "address",
              "name": "eventContract",
              "type": "address"
            },
            {
              "internalType": "uint256",
              "name": "ticketID",
              "type": "uint256"
            }
          ],
          "internalType": "struct User.TicketInfo[]",
          "name": "",
          "type": "tuple[]"
        }
      ],
      "stateMutability": "view",
      "type": "function"
    },
    {
      "inputs": [
        {
          "internalType": "address",
          "name": "",
          "type": "address"
        },
        {
          "internalType": "uint256",
          "name": "",
          "type": "uint256"
        }
      ],
      "name": "userTickets",
      "outputs": [
        {
          "internalType": "address",
          "name": "eventContract",
          "type": "address"
        },
        {
          "internalType": "uint256",
          "name": "ticketID",
          "type": "uint256"
        }
      ],
      "stateMutability": "view",
      "type": "function"
    }
  ],
  "bytecode": "0x6080604052348015600f57600080fd5b5061067f8061001f6000396000f3fe608060405234801561001057600080fd5b50600436106100415760003560e01c80630ad182bc146100465780639ccd6d6414610076578063cf260baf14610092575b600080fd5b610060600480360381019061005b91906103d3565b6100c3565b60405161006d9190610506565b60405180910390f35b610090600480360381019061008b9190610554565b6101c0565b005b6100ac60048036038101906100a791906105a7565b61030f565b6040516100ba929190610605565b60405180910390f35b60606000808373ffffffffffffffffffffffffffffffffffffffff1673ffffffffffffffffffffffffffffffffffffffff168152602001908152602001600020805480602002602001604051908101604052809291908181526020016000905b828210156101b557838290600052602060002090600202016040518060400160405290816000820160009054906101000a900473ffffffffffffffffffffffffffffffffffffffff1673ffffffffffffffffffffffffffffffffffffffff1673ffffffffffffffffffffffffffffffffffffffff16815260200160018201548152505081526020019060010190610123565b505050509050919050565b6000808473ffffffffffffffffffffffffffffffffffffffff1673ffffffffffffffffffffffffffffffffffffffff16815260200190815260200160002060405180604001604052808473ffffffffffffffffffffffffffffffffffffffff16815260200183815250908060018154018082558091505060019003906000526020600020906002020160009091909190915060008201518160000160006101000a81548173ffffffffffffffffffffffffffffffffffffffff021916908373ffffffffffffffffffffffffffffffffffffffff1602179055506020820151816001015550508173ffffffffffffffffffffffffffffffffffffffff168373ffffffffffffffffffffffffffffffffffffffff167f46c5a89a1e066b5bcda22269562318e5aa065997bf8b36af3a6b37b87852d89083604051610302919061062e565b60405180910390a3505050565b6000602052816000526040600020818154811061032b57600080fd5b9060005260206000209060020201600091509150508060000160009054906101000a900473ffffffffffffffffffffffffffffffffffffffff16908060010154905082565b600080fd5b600073ffffffffffffffffffffffffffffffffffffffff82169050919050565b60006103a082610375565b9050919050565b6103b081610395565b81146103bb57600080fd5b50565b6000813590506103cd816103a7565b92915050565b6000602082840312156103e9576103e8610370565b5b60006103f7848285016103be565b91505092915050565b600081519050919050565b600082825260208201905092915050565b6000819050602082019050919050565b61043581610395565b82525050565b6000819050919050565b61044e8161043b565b82525050565b60408201600082015161046a600085018261042c565b50602082015161047d6020850182610445565b50505050565b600061048f8383610454565b60408301905092915050565b6000602082019050919050565b60006104b382610400565b6104bd818561040b565b93506104c88361041c565b8060005b838110156104f95781516104e08882610483565b97506104eb8361049b565b9250506001810190506104cc565b5085935050505092915050565b6000602082019050818103600083015261052081846104a8565b905092915050565b6105318161043b565b811461053c57600080fd5b50565b60008135905061054e81610528565b92915050565b60008060006060848603121561056d5761056c610370565b5b600061057b868287016103be565b935050602061058c868287016103be565b925050604061059d8682870161053f565b9150509250925092565b600080604083850312156105be576105bd610370565b5b60006105cc858286016103be565b92505060206105dd8582860161053f565b9150509250929050565b6105f081610395565b82525050565b6105ff8161043b565b82525050565b600060408201905061061a60008301856105e7565b61062760208301846105f6565b9392505050565b600060208201905061064360008301846105f6565b9291505056fea2646970667358221220ce14359b5c309ecf611f7d9560d94f1b05268eed5c91b01d2fbbeff32c5abcb964736f6c634300081c0033",
  "linkReferences": {},
  "deployedLinkReferences": {}
}