{
  "_format": "hh-sol-artifact-1",
  "contractName": "EventCreator",
  "sourceName": "contracts/EventCreator.sol",
  "abi": [
    {
      "anonymous": false,
      "inputs": [
        {
          "indexed": false,
          "internalType": "address",
          "name": "_creator",
          "type": "address"
        },
        {
          "indexed": false,
          "internalType": "address",
          "name": "_event",
          "type": "address"
        }
      ],
      "name": "CreateEvent",
      "type": "event"
    },
    {
      "inputs": [],
      "name": "TotalEvents",
      "outputs": [
        {
          "internalType": "uint256",
          "name": "",
          "type": "uint256"
        }
      ],
      "stateMutability": "view",
      "type": "function"
    },
    {
      "inputs": [
        {
          "internalType": "uint256",
          "name": "_numTickets",
          "type": "uint256"
        },
        {
          "internalType": "uint256",
          "name": "_price",
          "type": "uint256"
        },
        {
          "internalType": "bool",
          "name": "_canBeResold",
          "type": "bool"
        },
        {
          "internalType": "uint256",
          "name": "_royaltyPercent",
          "type": "uint256"
        },
        {
          "internalType": "string",
          "name": "_eventName",
          "type": "string"
        },
        {
          "internalType": "string",
          "name": "_eventSymbol",
          "type": "string"
        },
        {
          "internalType": "address",
          "name": "_userContract",
          "type": "address"
        }
      ],
      "name": "createEvent",
      "outputs": [
        {
          "internalType": "address",
          "name": "newEvent",
          "type": "address"
        }
      ],
      "stateMutability": "nonpayable",
      "type": "function"
    },
    {
      "inputs": [
        {
          "internalType": "uint256",
          "name": "",
          "type": "uint256"
        }
      ],
      "name": "events",
      "outputs": [
        {
          "internalType": "contract Event",
          "name": "",
          "type": "address"
        }
      ],
      "stateMutability": "view",
      "type": "function"
    },
    {
      "inputs": [],
      "name": "getEvents",
      "outputs": [
        {
          "internalType": "address[]",
          "name": "",
          "type": "address[]"
        }
      ],
      "stateMutability": "view",
      "type": "function"
    }
  ],
  "bytecode": "0x608060405260008055348015601357600080fd5b5061586e806100236000396000f3fe608060405234801561001057600080fd5b506004361061004c5760003560e01c80630b79143014610051578063404aa8f9146100815780636f07ec181461009f578063d8098122146100bd575b600080fd5b61006b60048036038101906100669190610393565b6100ed565b604051610078919061043f565b60405180910390f35b61008961012c565b604051610096919061052a565b60405180910390f35b6100a761022d565b6040516100b4919061055b565b60405180910390f35b6100d760048036038101906100d29190610720565b610233565b6040516100e49190610809565b60405180910390f35b600181815481106100fd57600080fd5b906000526020600020016000915054906101000a900473ffffffffffffffffffffffffffffffffffffffff1681565b60606000805467ffffffffffffffff81111561014b5761014a6105c9565b5b6040519080825280602002602001820160405280156101795781602001602082028036833780820191505090505b50905060005b60018054905081101561022557600181815481106101a05761019f610824565b5b9060005260206000200160009054906101000a900473ffffffffffffffffffffffffffffffffffffffff168282815181106101de576101dd610824565b5b602002602001019073ffffffffffffffffffffffffffffffffffffffff16908173ffffffffffffffffffffffffffffffffffffffff1681525050808060010191505061017f565b508091505090565b60005481565b600080338989898989898960405161024a9061033c565b61025b9897969594939291906108e1565b604051809103906000f080158015610277573d6000803e3d6000fd5b5090506001819080600181540180825580915050600190039060005260206000200160009091909190916101000a81548173ffffffffffffffffffffffffffffffffffffffff021916908373ffffffffffffffffffffffffffffffffffffffff1602179055506000808154809291906102ef9061099c565b91905055507f64f31017a670226c80c75659d4bb64bf5bb7f8490fef658f1be89d99583fe30433826040516103259291906109e4565b60405180910390a180915050979650505050505050565b614e2b80610a0e83390190565b6000604051905090565b600080fd5b600080fd5b6000819050919050565b6103708161035d565b811461037b57600080fd5b50565b60008135905061038d81610367565b92915050565b6000602082840312156103a9576103a8610353565b5b60006103b78482850161037e565b91505092915050565b600073ffffffffffffffffffffffffffffffffffffffff82169050919050565b6000819050919050565b60006104056104006103fb846103c0565b6103e0565b6103c0565b9050919050565b6000610417826103ea565b9050919050565b60006104298261040c565b9050919050565b6104398161041e565b82525050565b60006020820190506104546000830184610430565b92915050565b600081519050919050565b600082825260208201905092915050565b6000819050602082019050919050565b6000610491826103c0565b9050919050565b6104a181610486565b82525050565b60006104b38383610498565b60208301905092915050565b6000602082019050919050565b60006104d78261045a565b6104e18185610465565b93506104ec83610476565b8060005b8381101561051d57815161050488826104a7565b975061050f836104bf565b9250506001810190506104f0565b5085935050505092915050565b6000602082019050818103600083015261054481846104cc565b905092915050565b6105558161035d565b82525050565b6000602082019050610570600083018461054c565b92915050565b60008115159050919050565b61058b81610576565b811461059657600080fd5b50565b6000813590506105a881610582565b92915050565b600080fd5b600080fd5b6000601f19601f8301169050919050565b7f4e487b7100000000000000000000000000000000000000000000000000000000600052604160045260246000fd5b610601826105b8565b810181811067ffffffffffffffff821117156106205761061f6105c9565b5b80604052505050565b6000610633610349565b905061063f82826105f8565b919050565b600067ffffffffffffffff82111561065f5761065e6105c9565b5b610668826105b8565b9050602081019050919050565b82818337600083830152505050565b600061069761069284610644565b610629565b9050828152602081018484840111156106b3576106b26105b3565b5b6106be848285610675565b509392505050565b600082601f8301126106db576106da6105ae565b5b81356106eb848260208601610684565b91505092915050565b6106fd81610486565b811461070857600080fd5b50565b60008135905061071a816106f4565b92915050565b600080600080600080600060e0888a03121561073f5761073e610353565b5b600061074d8a828b0161037e565b975050602061075e8a828b0161037e565b965050604061076f8a828b01610599565b95505060606107808a828b0161037e565b945050608088013567ffffffffffffffff8111156107a1576107a0610358565b5b6107ad8a828b016106c6565b93505060a088013567ffffffffffffffff8111156107ce576107cd610358565b5b6107da8a828b016106c6565b92505060c06107eb8a828b0161070b565b91505092959891949750929550565b61080381610486565b82525050565b600060208201905061081e60008301846107fa565b92915050565b7f4e487b7100000000000000000000000000000000000000000000000000000000600052603260045260246000fd5b61085c81610576565b82525050565b600081519050919050565b600082825260208201905092915050565b60005b8381101561089c578082015181840152602081019050610881565b60008484015250505050565b60006108b382610862565b6108bd818561086d565b93506108cd81856020860161087e565b6108d6816105b8565b840191505092915050565b6000610100820190506108f7600083018b6107fa565b610904602083018a61054c565b610911604083018961054c565b61091e6060830188610853565b61092b608083018761054c565b81810360a083015261093d81866108a8565b905081810360c083015261095181856108a8565b905061096060e08301846107fa565b9998505050505050505050565b7f4e487b7100000000000000000000000000000000000000000000000000000000600052601160045260246000fd5b60006109a78261035d565b91507fffffffffffffffffffffffffffffffffffffffffffffffffffffffffffffffff82036109d9576109d861096d565b5b600182019050919050565b60006040820190506109f960008301856107fa565b610a0660208301846107fa565b939250505056fe608060405234801561001057600080fd5b50604051614e2b380380614e2b83398181016040528101906100329190610423565b828281600090816100439190610728565b5080600190816100539190610728565b505050600160068190555060008410158015610070575060648411155b6100af576040517f08c379a00000000000000000000000000000000000000000000000000000000081526004016100a69061087d565b60405180910390fd5b600087116100f2576040517f08c379a00000000000000000000000000000000000000000000000000000000081526004016100e99061090f565b60405180910390fd5b87600d60026101000a81548173ffffffffffffffffffffffffffffffffffffffff021916908373ffffffffffffffffffffffffffffffffffffffff16021790555086600a8190555086600b819055508560098190555084600d60006101000a81548160ff02191690831515021790555083600c819055506000600760006101000a81548160ff0219169083600481111561018f5761018e61092f565b5b021790555080600e60006101000a81548173ffffffffffffffffffffffffffffffffffffffff021916908373ffffffffffffffffffffffffffffffffffffffff160217905550505050505050505061095e565b6000604051905090565b600080fd5b600080fd5b600073ffffffffffffffffffffffffffffffffffffffff82169050919050565b6000610221826101f6565b9050919050565b61023181610216565b811461023c57600080fd5b50565b60008151905061024e81610228565b92915050565b6000819050919050565b61026781610254565b811461027257600080fd5b50565b6000815190506102848161025e565b92915050565b60008115159050919050565b61029f8161028a565b81146102aa57600080fd5b50565b6000815190506102bc81610296565b92915050565b600080fd5b600080fd5b6000601f19601f8301169050919050565b7f4e487b7100000000000000000000000000000000000000000000000000000000600052604160045260246000fd5b610315826102cc565b810181811067ffffffffffffffff82111715610334576103336102dd565b5b80604052505050565b60006103476101e2565b9050610353828261030c565b919050565b600067ffffffffffffffff821115610373576103726102dd565b5b61037c826102cc565b9050602081019050919050565b60005b838110156103a757808201518184015260208101905061038c565b60008484015250505050565b60006103c66103c184610358565b61033d565b9050828152602081018484840111156103e2576103e16102c7565b5b6103ed848285610389565b509392505050565b600082601f83011261040a576104096102c2565b5b815161041a8482602086016103b3565b91505092915050565b600080600080600080600080610100898b031215610444576104436101ec565b5b60006104528b828c0161023f565b98505060206104638b828c01610275565b97505060406104748b828c01610275565b96505060606104858b828c016102ad565b95505060806104968b828c01610275565b94505060a089015167ffffffffffffffff8111156104b7576104b66101f1565b5b6104c38b828c016103f5565b93505060c089015167ffffffffffffffff8111156104e4576104e36101f1565b5b6104f08b828c016103f5565b92505060e06105018b828c0161023f565b9150509295985092959890939650565b600081519050919050565b7f4e487b7100000000000000000000000000000000000000000000000000000000600052602260045260246000fd5b6000600282049050600182168061056357607f821691505b6020821081036105765761057561051c565b5b50919050565b60008190508160005260206000209050919050565b60006020601f8301049050919050565b600082821b905092915050565b6000600883026105de7fffffffffffffffffffffffffffffffffffffffffffffffffffffffffffffffff826105a1565b6105e886836105a1565b95508019841693508086168417925050509392505050565b6000819050919050565b600061062561062061061b84610254565b610600565b610254565b9050919050565b6000819050919050565b61063f8361060a565b61065361064b8261062c565b8484546105ae565b825550505050565b600090565b61066861065b565b610673818484610636565b505050565b5b818110156106975761068c600082610660565b600181019050610679565b5050565b601f8211156106dc576106ad8161057c565b6106b684610591565b810160208510156106c5578190505b6106d96106d185610591565b830182610678565b50505b505050565b600082821c905092915050565b60006106ff600019846008026106e1565b1980831691505092915050565b600061071883836106ee565b9150826002028217905092915050565b61073182610511565b67ffffffffffffffff81111561074a576107496102dd565b5b610754825461054b565b61075f82828561069b565b600060209050601f8311600181146107925760008415610780578287015190505b61078a858261070c565b8655506107f2565b601f1984166107a08661057c565b60005b828110156107c8578489015182556001820191506020850194506020810190506107a3565b868310156107e557848901516107e1601f8916826106ee565b8355505b6001600288020188555050505b505050505050565b600082825260208201905092915050565b7f526f79616c7479206d757374206265206265747765656e203020616e6420313060008201527f3000000000000000000000000000000000000000000000000000000000000000602082015250565b60006108676021836107fa565b91506108728261080b565b604082019050919050565b600060208201905081810360008301526108968161085a565b9050919050565b7f4e756d626572206f66207469636b657473206d7573742062652067726561746560008201527f72207468616e207a65726f000000000000000000000000000000000000000000602082015250565b60006108f9602b836107fa565b91506109048261089d565b604082019050919050565b60006020820190508181036000830152610928816108ec565b9050919050565b7f4e487b7100000000000000000000000000000000000000000000000000000000600052602160045260246000fd5b6144be8061096d6000396000f3fe6080604052600436106101ee5760003560e01c806395d89b411161010d578063b3874c0d116100a0578063ce3cd9971161006f578063ce3cd99714610707578063e2bb3ccf14610744578063e985e9c514610777578063edca914c146107b4578063f2d1ea05146107be576101ee565b8063b3874c0d1461064b578063b88d4fde14610676578063c040e6b81461069f578063c87b56dd146106ca576101ee565b8063a035b1fe116100dc578063a035b1fe146105a3578063a22cb465146105ce578063a49aa544146105f7578063a51bba8c14610620576101ee565b806395d89b41146104f957806395ee1221146105245780639aecd64a1461054f5780639f67756d14610578576101ee565b80633ccfd60b1161018557806350b447121161015457806350b44712146104165780636352211e1461045457806370a08231146104915780638da5cb5b146104ce576101ee565b80633ccfd60b1461036e57806342842e0e146103855780634680a424146103ae5780635000596b146103eb576101ee565b806323b872dd116101c157806323b872dd146102c157806327e235e3146102ea5780632f31707c14610327578063353d90ec14610343576101ee565b806301ffc9a7146101f357806306fdde0314610230578063081812fc1461025b578063095ea7b314610298575b600080fd5b3480156101ff57600080fd5b5061021a600480360381019061021591906131ff565b6107e7565b6040516102279190613247565b60405180910390f35b34801561023c57600080fd5b506102456108c9565b60405161025291906132f2565b60405180910390f35b34801561026757600080fd5b50610282600480360381019061027d919061334a565b61095b565b60405161028f91906133b8565b60405180910390f35b3480156102a457600080fd5b506102bf60048036038101906102ba91906133ff565b610977565b005b3480156102cd57600080fd5b506102e860048036038101906102e3919061343f565b61098d565b005b3480156102f657600080fd5b50610311600480360381019061030c9190613492565b610a8f565b60405161031e91906134ce565b60405180910390f35b610341600480360381019061033c919061334a565b610aa7565b005b34801561034f57600080fd5b50610358610deb565b60405161036591906134ce565b60405180910390f35b34801561037a57600080fd5b50610383610df1565b005b34801561039157600080fd5b506103ac60048036038101906103a7919061343f565b6112d1565b005b3480156103ba57600080fd5b506103d560048036038101906103d09190613492565b6112f1565b6040516103e29190613247565b60405180910390f35b3480156103f757600080fd5b50610400611311565b60405161040d91906133b8565b60405180910390f35b34801561042257600080fd5b5061043d6004803603810190610438919061334a565b611337565b60405161044b929190613560565b60405180910390f35b34801561046057600080fd5b5061047b6004803603810190610476919061334a565b611378565b60405161048891906133b8565b60405180910390f35b34801561049d57600080fd5b506104b860048036038101906104b39190613492565b61138a565b6040516104c591906134ce565b60405180910390f35b3480156104da57600080fd5b506104e3611444565b6040516104f091906135aa565b60405180910390f35b34801561050557600080fd5b5061050e61146a565b60405161051b91906132f2565b60405180910390f35b34801561053057600080fd5b506105396114fc565b6040516105469190613247565b60405180910390f35b34801561055b57600080fd5b50610576600480360381019061057191906133ff565b61150f565b005b34801561058457600080fd5b5061058d611616565b60405161059a91906134ce565b60405180910390f35b3480156105af57600080fd5b506105b861161c565b6040516105c591906134ce565b60405180910390f35b3480156105da57600080fd5b506105f560048036038101906105f091906135f1565b611622565b005b34801561060357600080fd5b5061061e60048036038101906106199190613631565b611638565b005b34801561062c57600080fd5b506106356118cc565b60405161064291906134ce565b60405180910390f35b34801561065757600080fd5b506106606118d2565b60405161066d9190613247565b60405180910390f35b34801561068257600080fd5b5061069d600480360381019061069891906137a6565b6118e5565b005b3480156106ab57600080fd5b506106b461190a565b6040516106c19190613871565b60405180910390f35b3480156106d657600080fd5b506106f160048036038101906106ec919061334a565b61191d565b6040516106fe91906132f2565b60405180910390f35b34801561071357600080fd5b5061072e600480360381019061072991906138b1565b611986565b60405161073b9190613871565b60405180910390f35b34801561075057600080fd5b50610759611c81565b60405161076e999897969594939291906138de565b60405180910390f35b34801561078357600080fd5b5061079e60048036038101906107999190613979565b611d0b565b6040516107ab9190613247565b60405180910390f35b6107bc611d9f565b005b3480156107ca57600080fd5b506107e560048036038101906107e0919061334a565b61211b565b005b60007f80ac58cd000000000000000000000000000000000000000000000000000000007bffffffffffffffffffffffffffffffffffffffffffffffffffffffff1916827bffffffffffffffffffffffffffffffffffffffffffffffffffffffff191614806108b257507f5b5e139f000000000000000000000000000000000000000000000000000000007bffffffffffffffffffffffffffffffffffffffffffffffffffffffff1916827bffffffffffffffffffffffffffffffffffffffffffffffffffffffff1916145b806108c257506108c182612340565b5b9050919050565b6060600080546108d8906139e8565b80601f0160208091040260200160405190810160405280929190818152602001828054610904906139e8565b80156109515780601f1061092657610100808354040283529160200191610951565b820191906000526020600020905b81548152906001019060200180831161093457829003601f168201915b5050505050905090565b6000610966826123aa565b5061097082612432565b9050919050565b610989828261098461246f565b612477565b5050565b600073ffffffffffffffffffffffffffffffffffffffff168273ffffffffffffffffffffffffffffffffffffffff16036109ff5760006040517f64a0ae920000000000000000000000000000000000000000000000000000000081526004016109f691906133b8565b60405180910390fd5b6000610a138383610a0e61246f565b612489565b90508373ffffffffffffffffffffffffffffffffffffffff168173ffffffffffffffffffffffffffffffffffffffff1614610a89578382826040517f64283d7b000000000000000000000000000000000000000000000000000000008152600401610a8093929190613a19565b60405180910390fd5b50505050565b600f6020528060005260406000206000915090505481565b6001806004811115610abc57610abb6134e9565b5b600760009054906101000a900460ff166004811115610ade57610add6134e9565b5b14610b1e576040517f08c379a0000000000000000000000000000000000000000000000000000000008152600401610b1590613a9c565b60405180910390fd5b600280811115610b3157610b306134e9565b5b60088381548110610b4557610b44613abc565b5b906000526020600020906002020160010160009054906101000a900460ff166002811115610b7657610b756134e9565b5b14610bb6576040517f08c379a0000000000000000000000000000000000000000000000000000000008152600401610bad90613b37565b60405180910390fd5b600060088381548110610bcc57610bcb613abc565b5b906000526020600020906002020160000154905080341115610c3d573373ffffffffffffffffffffffffffffffffffffffff166108fc60095434610c109190613b86565b9081150290604051600060405180830381858888f19350505050158015610c3b573d6000803e3d6000fd5b505b6000606482600c54610c4f9190613bba565b610c599190613c2b565b905060008183610c699190613b86565b90506000610c7686611378565b905081600f60008373ffffffffffffffffffffffffffffffffffffffff1673ffffffffffffffffffffffffffffffffffffffff1681526020019081526020016000206000828254610cc79190613c5c565b9250508190555082600f6000600d60029054906101000a900473ffffffffffffffffffffffffffffffffffffffff1673ffffffffffffffffffffffffffffffffffffffff1673ffffffffffffffffffffffffffffffffffffffff1681526020019081526020016000206000828254610d3f9190613c5c565b925050819055507ff43c2b94d59192e43ff5461a2ec018bcf2178e26af43252b9bb00e937ab5c84330610d706108c9565b3389604051610d829493929190613c90565b60405180910390a1610d958133886112d1565b600060088781548110610dab57610daa613abc565b5b906000526020600020906002020160010160006101000a81548160ff02191690836002811115610dde57610ddd6134e9565b5b0217905550505050505050565b600b5481565b610df96126a3565b600d60029054906101000a900473ffffffffffffffffffffffffffffffffffffffff1673ffffffffffffffffffffffffffffffffffffffff163373ffffffffffffffffffffffffffffffffffffffff16146110ba576000600f60003373ffffffffffffffffffffffffffffffffffffffff1673ffffffffffffffffffffffffffffffffffffffff16815260200190815260200160002054905060036004811115610ea657610ea56134e9565b5b600760009054906101000a900460ff166004811115610ec857610ec76134e9565b5b148015610f25575060001515601060003373ffffffffffffffffffffffffffffffffffffffff1673ffffffffffffffffffffffffffffffffffffffff16815260200190815260200160002060009054906101000a900460ff161515145b15610f4e57600954610f363361138a565b610f409190613bba565b81610f4b9190613c5c565b90505b60008111610f91576040517f08c379a0000000000000000000000000000000000000000000000000000000008152600401610f8890613d28565b60405180910390fd5b6000600f60003373ffffffffffffffffffffffffffffffffffffffff1673ffffffffffffffffffffffffffffffffffffffff168152602001908152602001600020819055506001601060003373ffffffffffffffffffffffffffffffffffffffff1673ffffffffffffffffffffffffffffffffffffffff16815260200190815260200160002060006101000a81548160ff02191690831515021790555060003390508073ffffffffffffffffffffffffffffffffffffffff166108fc839081150290604051600060405180830381858888f19350505050158015611079573d6000803e3d6000fd5b507f9fe2db218b58c00ab3556f2be44b2769b37978368c63313d82d78306568e477633836040516110ab929190613d48565b60405180910390a150506112c7565b6004808111156110cd576110cc6134e9565b5b600760009054906101000a900460ff1660048111156110ef576110ee6134e9565b5b1461112f576040517f08c379a000000000000000000000000000000000000000000000000000000000815260040161112690613dbd565b60405180910390fd5b6000600f6000600d60029054906101000a900473ffffffffffffffffffffffffffffffffffffffff1673ffffffffffffffffffffffffffffffffffffffff1673ffffffffffffffffffffffffffffffffffffffff168152602001908152602001600020549050600081116111d8576040517f08c379a00000000000000000000000000000000000000000000000000000000081526004016111cf90613e29565b60405180910390fd5b6000600f6000600d60029054906101000a900473ffffffffffffffffffffffffffffffffffffffff1673ffffffffffffffffffffffffffffffffffffffff1673ffffffffffffffffffffffffffffffffffffffff1681526020019081526020016000208190555060003390508073ffffffffffffffffffffffffffffffffffffffff166108fc839081150290604051600060405180830381858888f1935050505015801561128a573d6000803e3d6000fd5b507f5f0d69e5c0056ecc650fc0d2d916359037135dac3d5b5446d226dfdbe292482e33836040516112bc929190613d48565b60405180910390a150505b6112cf6126e9565b565b6112ec838383604051806020016040528060008152506118e5565b505050565b60106020528060005260406000206000915054906101000a900460ff1681565b600e60009054906101000a900473ffffffffffffffffffffffffffffffffffffffff1681565b6008818154811061134757600080fd5b90600052602060002090600202016000915090508060000154908060010160009054906101000a900460ff16905082565b6000611383826123aa565b9050919050565b60008073ffffffffffffffffffffffffffffffffffffffff168273ffffffffffffffffffffffffffffffffffffffff16036113fd5760006040517f89c62b640000000000000000000000000000000000000000000000000000000081526004016113f491906133b8565b60405180910390fd5b600360008373ffffffffffffffffffffffffffffffffffffffff1673ffffffffffffffffffffffffffffffffffffffff168152602001908152602001600020549050919050565b600d60029054906101000a900473ffffffffffffffffffffffffffffffffffffffff1681565b606060018054611479906139e8565b80601f01602080910402602001604051908101604052809291908181526020018280546114a5906139e8565b80156114f25780601f106114c7576101008083540402835291602001916114f2565b820191906000526020600020905b8154815290600101906020018083116114d557829003601f168201915b5050505050905090565b600d60019054906101000a900460ff1681565b6001806004811115611524576115236134e9565b5b600760009054906101000a900460ff166004811115611546576115456134e9565b5b14611586576040517f08c379a000000000000000000000000000000000000000000000000000000000815260040161157d90613a9c565b60405180910390fd5b3373ffffffffffffffffffffffffffffffffffffffff166115a683611378565b73ffffffffffffffffffffffffffffffffffffffff16146115fc576040517f08c379a00000000000000000000000000000000000000000000000000000000081526004016115f390613e95565b60405180910390fd5b611607836001611622565b6116118383610977565b505050565b600c5481565b60095481565b61163461162d61246f565b83836126f3565b5050565b600180600481111561164d5761164c6134e9565b5b600760009054906101000a900460ff16600481111561166f5761166e6134e9565b5b146116af576040517f08c379a00000000000000000000000000000000000000000000000000000000081526004016116a690613a9c565b60405180910390fd5b823373ffffffffffffffffffffffffffffffffffffffff166116d082611378565b73ffffffffffffffffffffffffffffffffffffffff1614611726576040517f08c379a000000000000000000000000000000000000000000000000000000000815260040161171d90613f01565b60405180910390fd5b6001600281111561173a576117396134e9565b5b6008858154811061174e5761174d613abc565b5b906000526020600020906002020160010160009054906101000a900460ff16600281111561177f5761177e6134e9565b5b036117bf576040517f08c379a00000000000000000000000000000000000000000000000000000000081526004016117b690613f6d565b60405180910390fd5b60011515600d60009054906101000a900460ff16151514611815576040517f08c379a000000000000000000000000000000000000000000000000000000000815260040161180c90613fd9565b60405180910390fd5b60026008858154811061182b5761182a613abc565b5b906000526020600020906002020160010160006101000a81548160ff0219169083600281111561185e5761185d6134e9565b5b0217905550826008858154811061187857611877613abc565b5b9060005260206000209060020201600001819055507fec1a51878793b26371980da80139946e4a398461978717cbe8d07596dd3404b633856040516118be929190613d48565b60405180910390a150505050565b600a5481565b600d60009054906101000a900460ff1681565b6118f084848461098d565b6119046118fb61246f565b85858585612862565b50505050565b600760009054906101000a900460ff1681565b6060611928826123aa565b506000611933612a13565b90506000815111611953576040518060200160405280600081525061197e565b8061195d84612a2a565b60405160200161196e929190614035565b6040516020818303038152906040525b915050919050565b6000600d60029054906101000a900473ffffffffffffffffffffffffffffffffffffffff1673ffffffffffffffffffffffffffffffffffffffff163373ffffffffffffffffffffffffffffffffffffffff1614611a18576040517f08c379a0000000000000000000000000000000000000000000000000000000008152600401611a0f906140a5565b60405180910390fd5b600760009054906101000a900460ff166004811115611a3a57611a396134e9565b5b826004811115611a4d57611a4c6134e9565b5b11611a8d576040517f08c379a0000000000000000000000000000000000000000000000000000000008152600401611a8490614137565b60405180910390fd5b60036004811115611aa157611aa06134e9565b5b826004811115611ab457611ab36134e9565b5b03611c09576001600d60016101000a81548160ff0219169083151502179055506000600880549050600954611ae99190613bba565b905080600f6000600d60029054906101000a900473ffffffffffffffffffffffffffffffffffffffff1673ffffffffffffffffffffffffffffffffffffffff1673ffffffffffffffffffffffffffffffffffffffff168152602001908152602001600020541015611b8f576040517f08c379a0000000000000000000000000000000000000000000000000000000008152600401611b86906141a3565b60405180910390fd5b80600f6000600d60029054906101000a900473ffffffffffffffffffffffffffffffffffffffff1673ffffffffffffffffffffffffffffffffffffffff1673ffffffffffffffffffffffffffffffffffffffff1681526020019081526020016000206000828254611c009190613b86565b92505081905550505b81600760006101000a81548160ff02191690836004811115611c2e57611c2d6134e9565b5b02179055507f273467821f33675618854603ef917ebcec8a1a39f95c43d5564ed1aefab870b382604051611c629190613871565b60405180910390a1600760009054906101000a900460ff169050919050565b6000806000806000806000606080600d60029054906101000a900473ffffffffffffffffffffffffffffffffffffffff16600b54600a54600954600c54600d60009054906101000a900460ff16600760009054906101000a900460ff16611ce66108c9565b611cee61146a565b985098509850985098509850985098509850909192939495969798565b6000600560008473ffffffffffffffffffffffffffffffffffffffff1673ffffffffffffffffffffffffffffffffffffffff16815260200190815260200160002060008373ffffffffffffffffffffffffffffffffffffffff1673ffffffffffffffffffffffffffffffffffffffff16815260200190815260200160002060009054906101000a900460ff16905092915050565b6001806004811115611db457611db36134e9565b5b600760009054906101000a900460ff166004811115611dd657611dd56134e9565b5b14611e16576040517f08c379a0000000000000000000000000000000000000000000000000000000008152600401611e0d90613a9c565b60405180910390fd5b6000600a5411611e5b576040517f08c379a0000000000000000000000000000000000000000000000000000000008152600401611e529061420f565b60405180910390fd5b600954341015611ea0576040517f08c379a0000000000000000000000000000000000000000000000000000000008152600401611e979061427b565b60405180910390fd5b60086040518060400160405280600954815260200160006002811115611ec957611ec86134e9565b5b81525090806001815401808255809150506001900390600052602060002090600202016000909190919091506000820151816000015560208201518160010160006101000a81548160ff02191690836002811115611f2a57611f296134e9565b5b0217905550505060006001600880549050611f459190613b86565b9050600a6000815480929190611f5a9061429b565b9190505550600954341115611fbe573373ffffffffffffffffffffffffffffffffffffffff166108fc60095434611f919190613b86565b9081150290604051600060405180830381858888f19350505050158015611fbc573d6000803e3d6000fd5b505b600954600f6000600d60029054906101000a900473ffffffffffffffffffffffffffffffffffffffff1673ffffffffffffffffffffffffffffffffffffffff1673ffffffffffffffffffffffffffffffffffffffff16815260200190815260200160002060008282546120319190613c5c565b925050819055506120423382612af8565b600e60009054906101000a900473ffffffffffffffffffffffffffffffffffffffff1673ffffffffffffffffffffffffffffffffffffffff16639ccd6d643330846040518463ffffffff1660e01b81526004016120a1939291906142c4565b600060405180830381600087803b1580156120bb57600080fd5b505af11580156120cf573d6000803e3d6000fd5b505050507f1b430c41ad1e9efc507aac150600ae9a3da936ed08479682cf954ffe044cd3d7306120fd6108c9565b338460405161210f9493929190613c90565b60405180910390a15050565b60028060048111156121305761212f6134e9565b5b600760009054906101000a900460ff166004811115612152576121516134e9565b5b14612192576040517f08c379a000000000000000000000000000000000000000000000000000000000815260040161218990613a9c565b60405180910390fd5b813373ffffffffffffffffffffffffffffffffffffffff166121b382611378565b73ffffffffffffffffffffffffffffffffffffffff1614612209576040517f08c379a000000000000000000000000000000000000000000000000000000000815260040161220090613f01565b60405180910390fd5b6000600281111561221d5761221c6134e9565b5b6008848154811061223157612230613abc565b5b906000526020600020906002020160010160009054906101000a900460ff166002811115612262576122616134e9565b5b146122a2576040517f08c379a000000000000000000000000000000000000000000000000000000000815260040161229990614347565b60405180910390fd5b6001600884815481106122b8576122b7613abc565b5b906000526020600020906002020160010160006101000a81548160ff021916908360028111156122eb576122ea6134e9565b5b02179055506122f983612b16565b7fac92174eeb61f85360ac620b9781698309ca5a158de1f1174c15bec108483b4430846123246108c9565b60405161233393929190614367565b60405180910390a1505050565b60007f01ffc9a7000000000000000000000000000000000000000000000000000000007bffffffffffffffffffffffffffffffffffffffffffffffffffffffff1916827bffffffffffffffffffffffffffffffffffffffffffffffffffffffff1916149050919050565b6000806123b683612b9c565b9050600073ffffffffffffffffffffffffffffffffffffffff168173ffffffffffffffffffffffffffffffffffffffff160361242957826040517f7e27328900000000000000000000000000000000000000000000000000000000815260040161242091906134ce565b60405180910390fd5b80915050919050565b60006004600083815260200190815260200160002060009054906101000a900473ffffffffffffffffffffffffffffffffffffffff169050919050565b600033905090565b6124848383836001612bd9565b505050565b60008061249584612b9c565b9050600073ffffffffffffffffffffffffffffffffffffffff168373ffffffffffffffffffffffffffffffffffffffff16146124d7576124d6818486612d9e565b5b600073ffffffffffffffffffffffffffffffffffffffff168173ffffffffffffffffffffffffffffffffffffffff161461256857612519600085600080612bd9565b6001600360008373ffffffffffffffffffffffffffffffffffffffff1673ffffffffffffffffffffffffffffffffffffffff168152602001908152602001600020600082825403925050819055505b600073ffffffffffffffffffffffffffffffffffffffff168573ffffffffffffffffffffffffffffffffffffffff16146125eb576001600360008773ffffffffffffffffffffffffffffffffffffffff1673ffffffffffffffffffffffffffffffffffffffff168152602001908152602001600020600082825401925050819055505b846002600086815260200190815260200160002060006101000a81548173ffffffffffffffffffffffffffffffffffffffff021916908373ffffffffffffffffffffffffffffffffffffffff160217905550838573ffffffffffffffffffffffffffffffffffffffff168273ffffffffffffffffffffffffffffffffffffffff167fddf252ad1be2c89b69c2b068fc378daa952ba7f163c4a11628f55a4df523b3ef60405160405180910390a4809150509392505050565b6002600654036126df576040517f3ee5aeb500000000000000000000000000000000000000000000000000000000815260040160405180910390fd5b6002600681905550565b6001600681905550565b600073ffffffffffffffffffffffffffffffffffffffff168273ffffffffffffffffffffffffffffffffffffffff160361276457816040517f5b08ba1800000000000000000000000000000000000000000000000000000000815260040161275b91906133b8565b60405180910390fd5b80600560008573ffffffffffffffffffffffffffffffffffffffff1673ffffffffffffffffffffffffffffffffffffffff16815260200190815260200160002060008473ffffffffffffffffffffffffffffffffffffffff1673ffffffffffffffffffffffffffffffffffffffff16815260200190815260200160002060006101000a81548160ff0219169083151502179055508173ffffffffffffffffffffffffffffffffffffffff168373ffffffffffffffffffffffffffffffffffffffff167f17307eab39ab6107e8899845ad3d59bd9653f200f220920489ca2b5937696c31836040516128559190613247565b60405180910390a3505050565b60008373ffffffffffffffffffffffffffffffffffffffff163b1115612a0c578273ffffffffffffffffffffffffffffffffffffffff1663150b7a02868685856040518563ffffffff1660e01b81526004016128c194939291906143fa565b6020604051808303816000875af19250505080156128fd57506040513d601f19601f820116820180604052508101906128fa919061445b565b60015b612981573d806000811461292d576040519150601f19603f3d011682016040523d82523d6000602084013e612932565b606091505b50600081510361297957836040517f64a0ae9200000000000000000000000000000000000000000000000000000000815260040161297091906133b8565b60405180910390fd5b805181602001fd5b63150b7a0260e01b7bffffffffffffffffffffffffffffffffffffffffffffffffffffffff1916817bffffffffffffffffffffffffffffffffffffffffffffffffffffffff191614612a0a57836040517f64a0ae92000000000000000000000000000000000000000000000000000000008152600401612a0191906133b8565b60405180910390fd5b505b5050505050565b606060405180602001604052806000815250905090565b606060006001612a3984612e62565b01905060008167ffffffffffffffff811115612a5857612a5761367b565b5b6040519080825280601f01601f191660200182016040528015612a8a5781602001600182028036833780820191505090505b509050600082602001820190505b600115612aed578080600190039150507f3031323334353637383961626364656600000000000000000000000000000000600a86061a8153600a8581612ae157612ae0613bfc565b5b04945060008503612a98575b819350505050919050565b612b12828260405180602001604052806000815250612fb5565b5050565b6000612b256000836000612489565b9050600073ffffffffffffffffffffffffffffffffffffffff168173ffffffffffffffffffffffffffffffffffffffff1603612b9857816040517f7e273289000000000000000000000000000000000000000000000000000000008152600401612b8f91906134ce565b60405180910390fd5b5050565b60006002600083815260200190815260200160002060009054906101000a900473ffffffffffffffffffffffffffffffffffffffff169050919050565b8080612c125750600073ffffffffffffffffffffffffffffffffffffffff168273ffffffffffffffffffffffffffffffffffffffff1614155b15612d46576000612c22846123aa565b9050600073ffffffffffffffffffffffffffffffffffffffff168373ffffffffffffffffffffffffffffffffffffffff1614158015612c8d57508273ffffffffffffffffffffffffffffffffffffffff168173ffffffffffffffffffffffffffffffffffffffff1614155b8015612ca05750612c9e8184611d0b565b155b15612ce257826040517fa9fbf51f000000000000000000000000000000000000000000000000000000008152600401612cd991906133b8565b60405180910390fd5b8115612d4457838573ffffffffffffffffffffffffffffffffffffffff168273ffffffffffffffffffffffffffffffffffffffff167f8c5be1e5ebec7d5bd14f71427d1e84f3dd0314c0f7b2291e5b200ac8c7c3b92560405160405180910390a45b505b836004600085815260200190815260200160002060006101000a81548173ffffffffffffffffffffffffffffffffffffffff021916908373ffffffffffffffffffffffffffffffffffffffff16021790555050505050565b612da9838383612fd9565b612e5d57600073ffffffffffffffffffffffffffffffffffffffff168373ffffffffffffffffffffffffffffffffffffffff1603612e1e57806040517f7e273289000000000000000000000000000000000000000000000000000000008152600401612e1591906134ce565b60405180910390fd5b81816040517f177e802f000000000000000000000000000000000000000000000000000000008152600401612e54929190613d48565b60405180910390fd5b505050565b600080600090507a184f03e93ff9f4daa797ed6e38ed64bf6a1f0100000000000000008310612ec0577a184f03e93ff9f4daa797ed6e38ed64bf6a1f0100000000000000008381612eb657612eb5613bfc565b5b0492506040810190505b6d04ee2d6d415b85acef81000000008310612efd576d04ee2d6d415b85acef81000000008381612ef357612ef2613bfc565b5b0492506020810190505b662386f26fc100008310612f2c57662386f26fc100008381612f2257612f21613bfc565b5b0492506010810190505b6305f5e1008310612f55576305f5e1008381612f4b57612f4a613bfc565b5b0492506008810190505b6127108310612f7a576127108381612f7057612f6f613bfc565b5b0492506004810190505b60648310612f9d5760648381612f9357612f92613bfc565b5b0492506002810190505b600a8310612fac576001810190505b80915050919050565b612fbf838361309a565b612fd4612fca61246f565b6000858585612862565b505050565b60008073ffffffffffffffffffffffffffffffffffffffff168373ffffffffffffffffffffffffffffffffffffffff161415801561309157508273ffffffffffffffffffffffffffffffffffffffff168473ffffffffffffffffffffffffffffffffffffffff16148061305257506130518484611d0b565b5b8061309057508273ffffffffffffffffffffffffffffffffffffffff1661307883612432565b73ffffffffffffffffffffffffffffffffffffffff16145b5b90509392505050565b600073ffffffffffffffffffffffffffffffffffffffff168273ffffffffffffffffffffffffffffffffffffffff160361310c5760006040517f64a0ae9200000000000000000000000000000000000000000000000000000000815260040161310391906133b8565b60405180910390fd5b600061311a83836000612489565b9050600073ffffffffffffffffffffffffffffffffffffffff168173ffffffffffffffffffffffffffffffffffffffff161461318e5760006040517f73c6ac6e00000000000000000000000000000000000000000000000000000000815260040161318591906133b8565b60405180910390fd5b505050565b6000604051905090565b600080fd5b600080fd5b60007fffffffff0000000000000000000000000000000000000000000000000000000082169050919050565b6131dc816131a7565b81146131e757600080fd5b50565b6000813590506131f9816131d3565b92915050565b6000602082840312156132155761321461319d565b5b6000613223848285016131ea565b91505092915050565b60008115159050919050565b6132418161322c565b82525050565b600060208201905061325c6000830184613238565b92915050565b600081519050919050565b600082825260208201905092915050565b60005b8381101561329c578082015181840152602081019050613281565b60008484015250505050565b6000601f19601f8301169050919050565b60006132c482613262565b6132ce818561326d565b93506132de81856020860161327e565b6132e7816132a8565b840191505092915050565b6000602082019050818103600083015261330c81846132b9565b905092915050565b6000819050919050565b61332781613314565b811461333257600080fd5b50565b6000813590506133448161331e565b92915050565b6000602082840312156133605761335f61319d565b5b600061336e84828501613335565b91505092915050565b600073ffffffffffffffffffffffffffffffffffffffff82169050919050565b60006133a282613377565b9050919050565b6133b281613397565b82525050565b60006020820190506133cd60008301846133a9565b92915050565b6133dc81613397565b81146133e757600080fd5b50565b6000813590506133f9816133d3565b92915050565b600080604083850312156134165761341561319d565b5b6000613424858286016133ea565b925050602061343585828601613335565b9150509250929050565b6000806000606084860312156134585761345761319d565b5b6000613466868287016133ea565b9350506020613477868287016133ea565b925050604061348886828701613335565b9150509250925092565b6000602082840312156134a8576134a761319d565b5b60006134b6848285016133ea565b91505092915050565b6134c881613314565b82525050565b60006020820190506134e360008301846134bf565b92915050565b7f4e487b7100000000000000000000000000000000000000000000000000000000600052602160045260246000fd5b60038110613529576135286134e9565b5b50565b600081905061353a82613518565b919050565b600061354a8261352c565b9050919050565b61355a8161353f565b82525050565b600060408201905061357560008301856134bf565b6135826020830184613551565b9392505050565b600061359482613377565b9050919050565b6135a481613589565b82525050565b60006020820190506135bf600083018461359b565b92915050565b6135ce8161322c565b81146135d957600080fd5b50565b6000813590506135eb816135c5565b92915050565b600080604083850312156136085761360761319d565b5b6000613616858286016133ea565b9250506020613627858286016135dc565b9150509250929050565b600080604083850312156136485761364761319d565b5b600061365685828601613335565b925050602061366785828601613335565b9150509250929050565b600080fd5b600080fd5b7f4e487b7100000000000000000000000000000000000000000000000000000000600052604160045260246000fd5b6136b3826132a8565b810181811067ffffffffffffffff821117156136d2576136d161367b565b5b80604052505050565b60006136e5613193565b90506136f182826136aa565b919050565b600067ffffffffffffffff8211156137115761371061367b565b5b61371a826132a8565b9050602081019050919050565b82818337600083830152505050565b6000613749613744846136f6565b6136db565b90508281526020810184848401111561376557613764613676565b5b613770848285613727565b509392505050565b600082601f83011261378d5761378c613671565b5b813561379d848260208601613736565b91505092915050565b600080600080608085870312156137c0576137bf61319d565b5b60006137ce878288016133ea565b94505060206137df878288016133ea565b93505060406137f087828801613335565b925050606085013567ffffffffffffffff811115613811576138106131a2565b5b61381d87828801613778565b91505092959194509250565b6005811061383a576138396134e9565b5b50565b600081905061384b82613829565b919050565b600061385b8261383d565b9050919050565b61386b81613850565b82525050565b60006020820190506138866000830184613862565b92915050565b6005811061389957600080fd5b50565b6000813590506138ab8161388c565b92915050565b6000602082840312156138c7576138c661319d565b5b60006138d58482850161389c565b91505092915050565b6000610120820190506138f4600083018c6133a9565b613901602083018b6134bf565b61390e604083018a6134bf565b61391b60608301896134bf565b61392860808301886134bf565b61393560a0830187613238565b61394260c0830186613862565b81810360e083015261395481856132b9565b905081810361010083015261396981846132b9565b90509a9950505050505050505050565b600080604083850312156139905761398f61319d565b5b600061399e858286016133ea565b92505060206139af858286016133ea565b9150509250929050565b7f4e487b7100000000000000000000000000000000000000000000000000000000600052602260045260246000fd5b60006002820490506001821680613a0057607f821691505b602082108103613a1357613a126139b9565b5b50919050565b6000606082019050613a2e60008301866133a9565b613a3b60208301856134bf565b613a4860408301846133a9565b949350505050565b7f4e6f742074686520726571756972656420737461676500000000000000000000600082015250565b6000613a8660168361326d565b9150613a9182613a50565b602082019050919050565b60006020820190508181036000830152613ab581613a79565b9050919050565b7f4e487b7100000000000000000000000000000000000000000000000000000000600052603260045260246000fd5b7f5469636b6574206973206e6f7420617661696c61626c6520666f722073616c65600082015250565b6000613b2160208361326d565b9150613b2c82613aeb565b602082019050919050565b60006020820190508181036000830152613b5081613b14565b9050919050565b7f4e487b7100000000000000000000000000000000000000000000000000000000600052601160045260246000fd5b6000613b9182613314565b9150613b9c83613314565b9250828203905081811115613bb457613bb3613b57565b5b92915050565b6000613bc582613314565b9150613bd083613314565b9250828202613bde81613314565b91508282048414831517613bf557613bf4613b57565b5b5092915050565b7f4e487b7100000000000000000000000000000000000000000000000000000000600052601260045260246000fd5b6000613c3682613314565b9150613c4183613314565b925082613c5157613c50613bfc565b5b828204905092915050565b6000613c6782613314565b9150613c7283613314565b9250828201905080821115613c8a57613c89613b57565b5b92915050565b6000608082019050613ca560008301876133a9565b8181036020830152613cb781866132b9565b9050613cc660408301856133a9565b613cd360608301846134bf565b95945050505050565b7f4e6f206d6f6e657920746f207769746864726177000000000000000000000000600082015250565b6000613d1260148361326d565b9150613d1d82613cdc565b602082019050919050565b60006020820190508181036000830152613d4181613d05565b9050919050565b6000604082019050613d5d60008301856133a9565b613d6a60208301846134bf565b9392505050565b7f4576656e74206973206e6f7420636c6f73656400000000000000000000000000600082015250565b6000613da760138361326d565b9150613db282613d71565b602082019050919050565b60006020820190508181036000830152613dd681613d9a565b9050919050565b7f4f776e65722062616c616e636520697320300000000000000000000000000000600082015250565b6000613e1360128361326d565b9150613e1e82613ddd565b602082019050919050565b60006020820190508181036000830152613e4281613e06565b9050919050565b7f4e6f7420746865207469636b6574206f776e6572000000000000000000000000600082015250565b6000613e7f60148361326d565b9150613e8a82613e49565b602082019050919050565b60006020820190508181036000830152613eae81613e72565b9050919050565b7f4e6f7420746865206f776e6572206f66207469636b6574000000000000000000600082015250565b6000613eeb60178361326d565b9150613ef682613eb5565b602082019050919050565b60006020820190508181036000830152613f1a81613ede565b9050919050565b7f5469636b65742069732075736564000000000000000000000000000000000000600082015250565b6000613f57600e8361326d565b9150613f6282613f21565b602082019050919050565b60006020820190508181036000830152613f8681613f4a565b9050919050565b7f5469636b65742063616e2774206265207265736f6c6400000000000000000000600082015250565b6000613fc360168361326d565b9150613fce82613f8d565b602082019050919050565b60006020820190508181036000830152613ff281613fb6565b9050919050565b600081905092915050565b600061400f82613262565b6140198185613ff9565b935061402981856020860161327e565b80840191505092915050565b60006140418285614004565b915061404d8284614004565b91508190509392505050565b7f4f6e6c79206f776e657220697320616c6c6f7765640000000000000000000000600082015250565b600061408f60158361326d565b915061409a82614059565b602082019050919050565b600060208201905081810360008301526140be81614082565b9050919050565b7f43616e6e6f742072657665727420746f20612070726576696f7573207374616760008201527f6500000000000000000000000000000000000000000000000000000000000000602082015250565b600061412160218361326d565b915061412c826140c5565b604082019050919050565b6000602082019050818103600083015261415081614114565b9050919050565b7f496e73756666696369656e742062616c616e636520666f7220726566756e6473600082015250565b600061418d60208361326d565b915061419882614157565b602082019050919050565b600060208201905081810360008301526141bc81614180565b9050919050565b7f4e6f207469636b657473206c6566740000000000000000000000000000000000600082015250565b60006141f9600f8361326d565b9150614204826141c3565b602082019050919050565b60006020820190508181036000830152614228816141ec565b9050919050565b7f496e73756666696369656e7420616d6f756e7420706169640000000000000000600082015250565b600061426560188361326d565b91506142708261422f565b602082019050919050565b6000602082019050818103600083015261429481614258565b9050919050565b60006142a682613314565b9150600082036142b9576142b8613b57565b5b600182039050919050565b60006060820190506142d960008301866133a9565b6142e660208301856133a9565b6142f360408301846134bf565b949350505050565b7f5469636b657420697320696e76616c6964000000000000000000000000000000600082015250565b600061433160118361326d565b915061433c826142fb565b602082019050919050565b6000602082019050818103600083015261436081614324565b9050919050565b600060608201905061437c60008301866133a9565b61438960208301856134bf565b818103604083015261439b81846132b9565b9050949350505050565b600081519050919050565b600082825260208201905092915050565b60006143cc826143a5565b6143d681856143b0565b93506143e681856020860161327e565b6143ef816132a8565b840191505092915050565b600060808201905061440f60008301876133a9565b61441c60208301866133a9565b61442960408301856134bf565b818103606083015261443b81846143c1565b905095945050505050565b600081519050614455816131d3565b92915050565b6000602082840312156144715761447061319d565b5b600061447f84828501614446565b9150509291505056fea2646970667358221220e19fc65ca6d3216c76cbb7ffdb24b870954133cb4a4bec4b40990c0a5ab8bc4a64736f6c634300081c0033a264697066735822122050eec12cc08ae989d051c09c92b9cc25e7bd285ed291d1e517fed6af05cdb26264736f6c634300081c0033",
  "linkReferences": {},
  "deployedLinkReferences": {}
}